{
  "_format": "hh-sol-artifact-1",
  "contractName": "CrossChainBridge",
  "sourceName": "contracts/CrossChain.sol",
  "abi": [
    {
      "inputs": [
        {
          "internalType": "address",
          "name": "_token",
          "type": "address"
        }
      ],
      "stateMutability": "nonpayable",
      "type": "constructor"
    },
    {
      "inputs": [
        {
          "internalType": "address",
          "name": "owner",
          "type": "address"
        }
      ],
      "name": "OwnableInvalidOwner",
      "type": "error"
    },
    {
      "inputs": [
        {
          "internalType": "address",
          "name": "account",
          "type": "address"
        }
      ],
      "name": "OwnableUnauthorizedAccount",
      "type": "error"
    },
    {
      "anonymous": false,
      "inputs": [
        {
          "indexed": true,
          "internalType": "address",
          "name": "previousOwner",
          "type": "address"
        },
        {
          "indexed": true,
          "internalType": "address",
          "name": "newOwner",
          "type": "address"
        }
      ],
      "name": "OwnershipTransferred",
      "type": "event"
    },
    {
      "anonymous": false,
      "inputs": [
        {
          "indexed": true,
          "internalType": "address",
          "name": "user",
          "type": "address"
        },
        {
          "indexed": false,
          "internalType": "uint256",
          "name": "amount",
          "type": "uint256"
        }
      ],
      "name": "TokensLocked",
      "type": "event"
    },
    {
      "anonymous": false,
      "inputs": [
        {
          "indexed": true,
          "internalType": "address",
          "name": "user",
          "type": "address"
        },
        {
          "indexed": false,
          "internalType": "uint256",
          "name": "amount",
          "type": "uint256"
        }
      ],
      "name": "TokensUnlocked",
      "type": "event"
    },
    {
      "inputs": [
        {
          "internalType": "uint256",
          "name": "amount",
          "type": "uint256"
        }
      ],
      "name": "lockTokens",
      "outputs": [],
      "stateMutability": "nonpayable",
      "type": "function"
    },
    {
      "inputs": [
        {
          "internalType": "address",
          "name": "",
          "type": "address"
        }
      ],
      "name": "lockedTokens",
      "outputs": [
        {
          "internalType": "uint256",
          "name": "",
          "type": "uint256"
        }
      ],
      "stateMutability": "view",
      "type": "function"
    },
    {
      "inputs": [],
      "name": "owner",
      "outputs": [
        {
          "internalType": "address",
          "name": "",
          "type": "address"
        }
      ],
      "stateMutability": "view",
      "type": "function"
    },
    {
      "inputs": [],
      "name": "renounceOwnership",
      "outputs": [],
      "stateMutability": "nonpayable",
      "type": "function"
    },
    {
      "inputs": [],
      "name": "token",
      "outputs": [
        {
          "internalType": "contract IERC20",
          "name": "",
          "type": "address"
        }
      ],
      "stateMutability": "view",
      "type": "function"
    },
    {
      "inputs": [
        {
          "internalType": "address",
          "name": "newOwner",
          "type": "address"
        }
      ],
      "name": "transferOwnership",
      "outputs": [],
      "stateMutability": "nonpayable",
      "type": "function"
    },
    {
      "inputs": [
        {
          "internalType": "address",
          "name": "user",
          "type": "address"
        },
        {
          "internalType": "uint256",
          "name": "amount",
          "type": "uint256"
        }
      ],
      "name": "unlockTokens",
      "outputs": [],
      "stateMutability": "nonpayable",
      "type": "function"
    }
  ],
  "bytecode": "0x60806040523480156200001157600080fd5b5060405162000f0938038062000f09833981810160405281019062000037919062000235565b33600073ffffffffffffffffffffffffffffffffffffffff168173ffffffffffffffffffffffffffffffffffffffff1603620000ad5760006040517f1e4fbdf7000000000000000000000000000000000000000000000000000000008152600401620000a4919062000278565b60405180910390fd5b620000be816200010760201b60201c565b5080600160006101000a81548173ffffffffffffffffffffffffffffffffffffffff021916908373ffffffffffffffffffffffffffffffffffffffff1602179055505062000295565b60008060009054906101000a900473ffffffffffffffffffffffffffffffffffffffff169050816000806101000a81548173ffffffffffffffffffffffffffffffffffffffff021916908373ffffffffffffffffffffffffffffffffffffffff1602179055508173ffffffffffffffffffffffffffffffffffffffff168173ffffffffffffffffffffffffffffffffffffffff167f8be0079c531659141344cd1fd0a4f28419497f9722a3daafe3b4186f6b6457e060405160405180910390a35050565b600080fd5b600073ffffffffffffffffffffffffffffffffffffffff82169050919050565b6000620001fd82620001d0565b9050919050565b6200020f81620001f0565b81146200021b57600080fd5b50565b6000815190506200022f8162000204565b92915050565b6000602082840312156200024e576200024d620001cb565b5b60006200025e848285016200021e565b91505092915050565b6200027281620001f0565b82525050565b60006020820190506200028f600083018462000267565b92915050565b610c6480620002a56000396000f3fe608060405234801561001057600080fd5b506004361061007d5760003560e01c80638da5cb5b1161005b5780638da5cb5b146100d85780639d564d9a146100f6578063f2fde38b14610112578063fc0c546a1461012e5761007d565b80635eb7413a146100825780636e27d889146100b2578063715018a6146100ce575b600080fd5b61009c600480360381019061009791906107df565b61014c565b6040516100a99190610825565b60405180910390f35b6100cc60048036038101906100c7919061086c565b610164565b005b6100d661032f565b005b6100e0610343565b6040516100ed91906108a8565b60405180910390f35b610110600480360381019061010b91906108c3565b61036c565b005b61012c600480360381019061012791906107df565b61057d565b005b610136610603565b6040516101439190610962565b60405180910390f35b60026020528060005260406000206000915090505481565b600081116101a7576040517f08c379a000000000000000000000000000000000000000000000000000000000815260040161019e906109da565b60405180910390fd5b600160009054906101000a900473ffffffffffffffffffffffffffffffffffffffff1673ffffffffffffffffffffffffffffffffffffffff166323b872dd3330846040518463ffffffff1660e01b8152600401610206939291906109fa565b6020604051808303816000875af1158015610225573d6000803e3d6000fd5b505050506040513d601f19601f820116820180604052508101906102499190610a69565b610288576040517f08c379a000000000000000000000000000000000000000000000000000000000815260040161027f90610ae2565b60405180910390fd5b80600260003373ffffffffffffffffffffffffffffffffffffffff1673ffffffffffffffffffffffffffffffffffffffff16815260200190815260200160002060008282546102d79190610b31565b925050819055503373ffffffffffffffffffffffffffffffffffffffff167fac87f20a77d28ee8bbb58ec87ea8fa968b3393efae1a368fd50b767c2847391c826040516103249190610825565b60405180910390a250565b610337610629565b61034160006106b0565b565b60008060009054906101000a900473ffffffffffffffffffffffffffffffffffffffff16905090565b610374610629565b80600260008473ffffffffffffffffffffffffffffffffffffffff1673ffffffffffffffffffffffffffffffffffffffff1681526020019081526020016000205410156103f6576040517f08c379a00000000000000000000000000000000000000000000000000000000081526004016103ed90610bb1565b60405180910390fd5b80600260008473ffffffffffffffffffffffffffffffffffffffff1673ffffffffffffffffffffffffffffffffffffffff16815260200190815260200160002060008282546104459190610bd1565b92505081905550600160009054906101000a900473ffffffffffffffffffffffffffffffffffffffff1673ffffffffffffffffffffffffffffffffffffffff1663a9059cbb83836040518363ffffffff1660e01b81526004016104a9929190610c05565b6020604051808303816000875af11580156104c8573d6000803e3d6000fd5b505050506040513d601f19601f820116820180604052508101906104ec9190610a69565b61052b576040517f08c379a000000000000000000000000000000000000000000000000000000000815260040161052290610ae2565b60405180910390fd5b8173ffffffffffffffffffffffffffffffffffffffff167fe7b379c6c1fa169e9079c25e9143b127637eef8ec8c9d5c06ddb4ab3e1195888826040516105719190610825565b60405180910390a25050565b610585610629565b600073ffffffffffffffffffffffffffffffffffffffff168173ffffffffffffffffffffffffffffffffffffffff16036105f75760006040517f1e4fbdf70000000000000000000000000000000000000000000000000000000081526004016105ee91906108a8565b60405180910390fd5b610600816106b0565b50565b600160009054906101000a900473ffffffffffffffffffffffffffffffffffffffff1681565b610631610774565b73ffffffffffffffffffffffffffffffffffffffff1661064f610343565b73ffffffffffffffffffffffffffffffffffffffff16146106ae57610672610774565b6040517f118cdaa70000000000000000000000000000000000000000000000000000000081526004016106a591906108a8565b60405180910390fd5b565b60008060009054906101000a900473ffffffffffffffffffffffffffffffffffffffff169050816000806101000a81548173ffffffffffffffffffffffffffffffffffffffff021916908373ffffffffffffffffffffffffffffffffffffffff1602179055508173ffffffffffffffffffffffffffffffffffffffff168173ffffffffffffffffffffffffffffffffffffffff167f8be0079c531659141344cd1fd0a4f28419497f9722a3daafe3b4186f6b6457e060405160405180910390a35050565b600033905090565b600080fd5b600073ffffffffffffffffffffffffffffffffffffffff82169050919050565b60006107ac82610781565b9050919050565b6107bc816107a1565b81146107c757600080fd5b50565b6000813590506107d9816107b3565b92915050565b6000602082840312156107f5576107f461077c565b5b6000610803848285016107ca565b91505092915050565b6000819050919050565b61081f8161080c565b82525050565b600060208201905061083a6000830184610816565b92915050565b6108498161080c565b811461085457600080fd5b50565b60008135905061086681610840565b92915050565b6000602082840312156108825761088161077c565b5b600061089084828501610857565b91505092915050565b6108a2816107a1565b82525050565b60006020820190506108bd6000830184610899565b92915050565b600080604083850312156108da576108d961077c565b5b60006108e8858286016107ca565b92505060206108f985828601610857565b9150509250929050565b6000819050919050565b600061092861092361091e84610781565b610903565b610781565b9050919050565b600061093a8261090d565b9050919050565b600061094c8261092f565b9050919050565b61095c81610941565b82525050565b60006020820190506109776000830184610953565b92915050565b600082825260208201905092915050565b7f416d6f756e74206d7573742062652067726561746572207468616e207a65726f600082015250565b60006109c460208361097d565b91506109cf8261098e565b602082019050919050565b600060208201905081810360008301526109f3816109b7565b9050919050565b6000606082019050610a0f6000830186610899565b610a1c6020830185610899565b610a296040830184610816565b949350505050565b60008115159050919050565b610a4681610a31565b8114610a5157600080fd5b50565b600081519050610a6381610a3d565b92915050565b600060208284031215610a7f57610a7e61077c565b5b6000610a8d84828501610a54565b91505092915050565b7f5472616e73666572206661696c65640000000000000000000000000000000000600082015250565b6000610acc600f8361097d565b9150610ad782610a96565b602082019050919050565b60006020820190508181036000830152610afb81610abf565b9050919050565b7f4e487b7100000000000000000000000000000000000000000000000000000000600052601160045260246000fd5b6000610b3c8261080c565b9150610b478361080c565b9250828201905080821115610b5f57610b5e610b02565b5b92915050565b7f496e73756666696369656e74206c6f636b656420746f6b656e73000000000000600082015250565b6000610b9b601a8361097d565b9150610ba682610b65565b602082019050919050565b60006020820190508181036000830152610bca81610b8e565b9050919050565b6000610bdc8261080c565b9150610be78361080c565b9250828203905081811115610bff57610bfe610b02565b5b92915050565b6000604082019050610c1a6000830185610899565b610c276020830184610816565b939250505056fea2646970667358221220f03e6b3c67c2cb84ac394f7a6376288789baa5c3d4cc104a63a03166c5fbaaa064736f6c63430008140033",
  "linkReferences": {},
  "deployedLinkReferences": {}
}